{
  "contractName": "Storage",
  "abi": [
    {
      "inputs": [
        {
          "internalType": "address",
          "name": "company",
          "type": "address"
        },
        {
          "internalType": "address",
          "name": "superUser",
          "type": "address"
        }
      ],
      "stateMutability": "nonpayable",
      "type": "constructor"
    },
    {
      "anonymous": false,
      "inputs": [
        {
          "indexed": false,
          "internalType": "uint256",
          "name": "newTime",
          "type": "uint256"
        }
      ],
      "name": "ChallengeWindow",
      "type": "event"
    },
    {
      "anonymous": false,
      "inputs": [
        {
          "indexed": false,
          "internalType": "uint256",
          "name": "universeIdx",
          "type": "uint256"
        },
        {
          "indexed": false,
          "internalType": "address",
          "name": "owner",
          "type": "address"
        },
        {
          "indexed": false,
          "internalType": "string",
          "name": "name",
          "type": "string"
        },
        {
          "indexed": false,
          "internalType": "bool",
          "name": "authorizesRelay",
          "type": "bool"
        }
      ],
      "name": "CreateUniverse",
      "type": "event"
    },
    {
      "anonymous": false,
      "inputs": [
        {
          "indexed": false,
          "internalType": "uint8",
          "name": "value",
          "type": "uint8"
        }
      ],
      "name": "LevelsPerChallengeNextVerses",
      "type": "event"
    },
    {
      "anonymous": false,
      "inputs": [
        {
          "indexed": false,
          "internalType": "address",
          "name": "addr",
          "type": "address"
        }
      ],
      "name": "NewAssetExporter",
      "type": "event"
    },
    {
      "anonymous": false,
      "inputs": [
        {
          "indexed": false,
          "internalType": "address",
          "name": "addr",
          "type": "address"
        }
      ],
      "name": "NewCompany",
      "type": "event"
    },
    {
      "anonymous": false,
      "inputs": [
        {
          "indexed": false,
          "internalType": "address",
          "name": "addr",
          "type": "address"
        }
      ],
      "name": "NewDirectory",
      "type": "event"
    },
    {
      "anonymous": false,
      "inputs": [
        {
          "indexed": false,
          "internalType": "address",
          "name": "addr",
          "type": "address"
        }
      ],
      "name": "NewExternalNFTContract",
      "type": "event"
    },
    {
      "anonymous": false,
      "inputs": [
        {
          "indexed": false,
          "internalType": "string",
          "name": "newPath",
          "type": "string"
        }
      ],
      "name": "NewLicense",
      "type": "event"
    },
    {
      "anonymous": false,
      "inputs": [
        {
          "indexed": false,
          "internalType": "address",
          "name": "addr",
          "type": "address"
        }
      ],
      "name": "NewProposedCompany",
      "type": "event"
    },
    {
      "anonymous": false,
      "inputs": [
        {
          "indexed": false,
          "internalType": "address",
          "name": "addr",
          "type": "address"
        }
      ],
      "name": "NewStakers",
      "type": "event"
    },
    {
      "anonymous": false,
      "inputs": [
        {
          "indexed": false,
          "internalType": "address",
          "name": "addr",
          "type": "address"
        }
      ],
      "name": "NewSuperUser",
      "type": "event"
    },
    {
      "anonymous": false,
      "inputs": [
        {
          "indexed": false,
          "internalType": "address",
          "name": "addr",
          "type": "address"
        }
      ],
      "name": "NewTxRelayer",
      "type": "event"
    },
    {
      "anonymous": false,
      "inputs": [
        {
          "indexed": false,
          "internalType": "uint256",
          "name": "universeIdx",
          "type": "uint256"
        },
        {
          "indexed": false,
          "internalType": "address",
          "name": "owner",
          "type": "address"
        }
      ],
      "name": "NewUniverseOwner",
      "type": "event"
    },
    {
      "anonymous": false,
      "inputs": [
        {
          "indexed": false,
          "internalType": "address",
          "name": "addr",
          "type": "address"
        }
      ],
      "name": "NewUniversesRelayer",
      "type": "event"
    },
    {
      "anonymous": false,
      "inputs": [
        {
          "indexed": false,
          "internalType": "address",
          "name": "addr",
          "type": "address"
        }
      ],
      "name": "NewWriter",
      "type": "event"
    },
    {
      "anonymous": false,
      "inputs": [
        {
          "indexed": false,
          "internalType": "uint256",
          "name": "refVerse",
          "type": "uint256"
        },
        {
          "indexed": false,
          "internalType": "uint256",
          "name": "refTime",
          "type": "uint256"
        },
        {
          "indexed": false,
          "internalType": "uint256",
          "name": "vInterval",
          "type": "uint256"
        }
      ],
      "name": "TXBatchReference",
      "type": "event"
    },
    {
      "anonymous": false,
      "inputs": [
        {
          "indexed": false,
          "internalType": "uint256",
          "name": "newTime",
          "type": "uint256"
        }
      ],
      "name": "TimeWithoutVerseProduction",
      "type": "event"
    },
    {
      "anonymous": false,
      "inputs": [
        {
          "indexed": false,
          "internalType": "uint256",
          "name": "universeIdx",
          "type": "uint256"
        },
        {
          "indexed": false,
          "internalType": "bool",
          "name": "authorizesRelay",
          "type": "bool"
        }
      ],
      "name": "UniverseAuthorizesRelay",
      "type": "event"
    },
    {
      "anonymous": false,
      "inputs": [
        {
          "indexed": false,
          "internalType": "uint256",
          "name": "universeIdx",
          "type": "uint256"
        },
        {
          "indexed": false,
          "internalType": "string",
          "name": "name",
          "type": "string"
        }
      ],
      "name": "UniverseName",
      "type": "event"
    },
    {
      "inputs": [],
      "name": "acceptCompany",
      "outputs": [],
      "stateMutability": "nonpayable",
      "type": "function"
    },
    {
      "inputs": [],
      "name": "areAllChallengePosZero",
      "outputs": [
        {
          "internalType": "bool",
          "name": "",
          "type": "bool"
        }
      ],
      "stateMutability": "view",
      "type": "function"
    },
    {
      "inputs": [],
      "name": "assetExporter",
      "outputs": [
        {
          "internalType": "address",
          "name": "",
          "type": "address"
        }
      ],
      "stateMutability": "view",
      "type": "function"
    },
    {
      "inputs": [
        {
          "internalType": "uint256",
          "name": "verse",
          "type": "uint256"
        }
      ],
      "name": "challengeWindowAtVerse",
      "outputs": [
        {
          "internalType": "uint256",
          "name": "",
          "type": "uint256"
        }
      ],
      "stateMutability": "view",
      "type": "function"
    },
    {
      "inputs": [],
      "name": "challengeWindowCurrent",
      "outputs": [
        {
          "internalType": "uint256",
          "name": "",
          "type": "uint256"
        }
      ],
      "stateMutability": "view",
      "type": "function"
    },
    {
      "inputs": [],
      "name": "challengeWindowNextVerses",
      "outputs": [
        {
          "internalType": "uint256",
          "name": "",
          "type": "uint256"
        }
      ],
      "stateMutability": "view",
      "type": "function"
    },
    {
      "inputs": [],
      "name": "challengesLevel",
      "outputs": [
        {
          "internalType": "uint8",
          "name": "",
          "type": "uint8"
        }
      ],
      "stateMutability": "view",
      "type": "function"
    },
    {
      "inputs": [
        {
          "internalType": "uint8",
          "name": "level",
          "type": "uint8"
        }
      ],
      "name": "challengesOwnershipRoot",
      "outputs": [
        {
          "internalType": "bytes32",
          "name": "",
          "type": "bytes32"
        }
      ],
      "stateMutability": "view",
      "type": "function"
    },
    {
      "inputs": [
        {
          "internalType": "uint8",
          "name": "level",
          "type": "uint8"
        }
      ],
      "name": "challengesPos",
      "outputs": [
        {
          "internalType": "uint256",
          "name": "",
          "type": "uint256"
        }
      ],
      "stateMutability": "view",
      "type": "function"
    },
    {
      "inputs": [
        {
          "internalType": "uint8",
          "name": "level",
          "type": "uint8"
        }
      ],
      "name": "challengesRootAtEdge",
      "outputs": [
        {
          "internalType": "bytes32",
          "name": "",
          "type": "bytes32"
        }
      ],
      "stateMutability": "view",
      "type": "function"
    },
    {
      "inputs": [
        {
          "internalType": "uint8",
          "name": "level",
          "type": "uint8"
        }
      ],
      "name": "challengesTransitionsRoot",
      "outputs": [
        {
          "internalType": "bytes32",
          "name": "",
          "type": "bytes32"
        }
      ],
      "stateMutability": "view",
      "type": "function"
    },
    {
      "inputs": [
        {
          "internalType": "uint256",
          "name": "claimIdx",
          "type": "uint256"
        },
        {
          "internalType": "uint256",
          "name": "key",
          "type": "uint256"
        }
      ],
      "name": "claim",
      "outputs": [
        {
          "internalType": "uint256",
          "name": "verse",
          "type": "uint256"
        },
        {
          "internalType": "string",
          "name": "value",
          "type": "string"
        }
      ],
      "stateMutability": "view",
      "type": "function"
    },
    {
      "inputs": [],
      "name": "company",
      "outputs": [
        {
          "internalType": "address",
          "name": "",
          "type": "address"
        }
      ],
      "stateMutability": "view",
      "type": "function"
    },
    {
      "inputs": [
        {
          "internalType": "uint256",
          "name": "finalTransEndPos",
          "type": "uint256"
        }
      ],
      "name": "computeBottomLevelLeafPos",
      "outputs": [
        {
          "internalType": "uint256",
          "name": "bottomLevelLeafPos",
          "type": "uint256"
        }
      ],
      "stateMutability": "view",
      "type": "function"
    },
    {
      "inputs": [],
      "name": "directory",
      "outputs": [
        {
          "internalType": "address",
          "name": "",
          "type": "address"
        }
      ],
      "stateMutability": "view",
      "type": "function"
    },
    {
      "inputs": [
        {
          "internalType": "uint256",
          "name": "assetId",
          "type": "uint256"
        }
      ],
      "name": "exportCompletedVerse",
      "outputs": [
        {
          "internalType": "uint256",
          "name": "completedVerse",
          "type": "uint256"
        }
      ],
      "stateMutability": "view",
      "type": "function"
    },
    {
      "inputs": [
        {
          "internalType": "uint256",
          "name": "assetId",
          "type": "uint256"
        }
      ],
      "name": "exportOwner",
      "outputs": [
        {
          "internalType": "address",
          "name": "owner",
          "type": "address"
        }
      ],
      "stateMutability": "view",
      "type": "function"
    },
    {
      "inputs": [
        {
          "internalType": "uint256",
          "name": "assetId",
          "type": "uint256"
        }
      ],
      "name": "exportRequestInfo",
      "outputs": [
        {
          "internalType": "address",
          "name": "owner",
          "type": "address"
        },
        {
          "internalType": "uint256",
          "name": "requestVerse",
          "type": "uint256"
        },
        {
          "internalType": "uint256",
          "name": "completedVerse",
          "type": "uint256"
        }
      ],
      "stateMutability": "view",
      "type": "function"
    },
    {
      "inputs": [
        {
          "internalType": "uint256",
          "name": "assetId",
          "type": "uint256"
        }
      ],
      "name": "exportRequestVerse",
      "outputs": [
        {
          "internalType": "uint256",
          "name": "requestVerse",
          "type": "uint256"
        }
      ],
      "stateMutability": "view",
      "type": "function"
    },
    {
      "inputs": [],
      "name": "externalNFTContract",
      "outputs": [
        {
          "internalType": "address",
          "name": "",
          "type": "address"
        }
      ],
      "stateMutability": "view",
      "type": "function"
    },
    {
      "inputs": [
        {
          "internalType": "uint256",
          "name": "verse",
          "type": "uint256"
        }
      ],
      "name": "levelVerifiableOnChainAtVerse",
      "outputs": [
        {
          "internalType": "uint8",
          "name": "",
          "type": "uint8"
        }
      ],
      "stateMutability": "view",
      "type": "function"
    },
    {
      "inputs": [],
      "name": "levelVerifiableOnChainCurrent",
      "outputs": [
        {
          "internalType": "uint8",
          "name": "",
          "type": "uint8"
        }
      ],
      "stateMutability": "view",
      "type": "function"
    },
    {
      "inputs": [],
      "name": "license",
      "outputs": [
        {
          "internalType": "string",
          "name": "",
          "type": "string"
        }
      ],
      "stateMutability": "view",
      "type": "function"
    },
    {
      "inputs": [],
      "name": "maxTimeWithoutVerseProduction",
      "outputs": [
        {
          "internalType": "uint256",
          "name": "",
          "type": "uint256"
        }
      ],
      "stateMutability": "view",
      "type": "function"
    },
    {
      "inputs": [],
      "name": "nClaims",
      "outputs": [
        {
          "internalType": "uint256",
          "name": "",
          "type": "uint256"
        }
      ],
      "stateMutability": "view",
      "type": "function"
    },
    {
      "inputs": [],
      "name": "nLeavesPerChallengeCurrent",
      "outputs": [
        {
          "internalType": "uint256",
          "name": "",
          "type": "uint256"
        }
      ],
      "stateMutability": "view",
      "type": "function"
    },
    {
      "inputs": [
        {
          "internalType": "uint256",
          "name": "verse",
          "type": "uint256"
        }
      ],
      "name": "nLevelsPerChallengeAtVerse",
      "outputs": [
        {
          "internalType": "uint8",
          "name": "",
          "type": "uint8"
        }
      ],
      "stateMutability": "view",
      "type": "function"
    },
    {
      "inputs": [],
      "name": "nLevelsPerChallengeCurrent",
      "outputs": [
        {
          "internalType": "uint8",
          "name": "",
          "type": "uint8"
        }
      ],
      "stateMutability": "view",
      "type": "function"
    },
    {
      "inputs": [],
      "name": "nLevelsPerChallengeNextVerses",
      "outputs": [
        {
          "internalType": "uint8",
          "name": "",
          "type": "uint8"
        }
      ],
      "stateMutability": "view",
      "type": "function"
    },
    {
      "inputs": [
        {
          "internalType": "uint256",
          "name": "verse",
          "type": "uint256"
        }
      ],
      "name": "nTXsAtVerse",
      "outputs": [
        {
          "internalType": "uint256",
          "name": "",
          "type": "uint256"
        }
      ],
      "stateMutability": "view",
      "type": "function"
    },
    {
      "inputs": [],
      "name": "nTXsCurrent",
      "outputs": [
        {
          "internalType": "uint256",
          "name": "",
          "type": "uint256"
        }
      ],
      "stateMutability": "view",
      "type": "function"
    },
    {
      "inputs": [],
      "name": "nUniverses",
      "outputs": [
        {
          "internalType": "uint256",
          "name": "",
          "type": "uint256"
        }
      ],
      "stateMutability": "view",
      "type": "function"
    },
    {
      "inputs": [],
      "name": "ownershipCurrentVerse",
      "outputs": [
        {
          "internalType": "uint256",
          "name": "",
          "type": "uint256"
        }
      ],
      "stateMutability": "view",
      "type": "function"
    },
    {
      "inputs": [
        {
          "internalType": "uint256",
          "name": "verse",
          "type": "uint256"
        }
      ],
      "name": "ownershipRootAtVerse",
      "outputs": [
        {
          "internalType": "bytes32",
          "name": "",
          "type": "bytes32"
        }
      ],
      "stateMutability": "view",
      "type": "function"
    },
    {
      "inputs": [],
      "name": "ownershipRootCurrent",
      "outputs": [
        {
          "internalType": "bytes32",
          "name": "",
          "type": "bytes32"
        }
      ],
      "stateMutability": "view",
      "type": "function"
    },
    {
      "inputs": [
        {
          "internalType": "uint256",
          "name": "verse",
          "type": "uint256"
        }
      ],
      "name": "ownershipSubmissionTimeAtVerse",
      "outputs": [
        {
          "internalType": "uint256",
          "name": "",
          "type": "uint256"
        }
      ],
      "stateMutability": "view",
      "type": "function"
    },
    {
      "inputs": [],
      "name": "ownershipSubmissionTimeCurrent",
      "outputs": [
        {
          "internalType": "uint256",
          "name": "",
          "type": "uint256"
        }
      ],
      "stateMutability": "view",
      "type": "function"
    },
    {
      "inputs": [
        {
          "internalType": "address",
          "name": "addr",
          "type": "address"
        }
      ],
      "name": "proposeCompany",
      "outputs": [],
      "stateMutability": "nonpayable",
      "type": "function"
    },
    {
      "inputs": [],
      "name": "proposedCompany",
      "outputs": [
        {
          "internalType": "address",
          "name": "",
          "type": "address"
        }
      ],
      "stateMutability": "view",
      "type": "function"
    },
    {
      "inputs": [],
      "name": "referenceTime",
      "outputs": [
        {
          "internalType": "uint256",
          "name": "",
          "type": "uint256"
        }
      ],
      "stateMutability": "view",
      "type": "function"
    },
    {
      "inputs": [],
      "name": "referenceVerse",
      "outputs": [
        {
          "internalType": "uint256",
          "name": "",
          "type": "uint256"
        }
      ],
      "stateMutability": "view",
      "type": "function"
    },
    {
      "inputs": [
        {
          "internalType": "address",
          "name": "addr",
          "type": "address"
        }
      ],
      "name": "setAssetExporter",
      "outputs": [],
      "stateMutability": "nonpayable",
      "type": "function"
    },
    {
      "inputs": [
        {
          "internalType": "address",
          "name": "addr",
          "type": "address"
        }
      ],
      "name": "setDirectory",
      "outputs": [],
      "stateMutability": "nonpayable",
      "type": "function"
    },
    {
      "inputs": [
        {
          "internalType": "address",
          "name": "addr",
          "type": "address"
        }
      ],
      "name": "setExternalNFTContract",
      "outputs": [],
      "stateMutability": "nonpayable",
      "type": "function"
    },
    {
      "inputs": [
        {
          "internalType": "address",
          "name": "addr",
          "type": "address"
        }
      ],
      "name": "setStakers",
      "outputs": [],
      "stateMutability": "nonpayable",
      "type": "function"
    },
    {
      "inputs": [
        {
          "internalType": "address",
          "name": "addr",
          "type": "address"
        }
      ],
      "name": "setSuperUser",
      "outputs": [],
      "stateMutability": "nonpayable",
      "type": "function"
    },
    {
      "inputs": [
        {
          "internalType": "address",
          "name": "addr",
          "type": "address"
        }
      ],
      "name": "setTxRelayer",
      "outputs": [],
      "stateMutability": "nonpayable",
      "type": "function"
    },
    {
      "inputs": [
        {
          "internalType": "uint256",
          "name": "universeIdx",
          "type": "uint256"
        },
        {
          "internalType": "address",
          "name": "newOwner",
          "type": "address"
        }
      ],
      "name": "setUniverseOwner",
      "outputs": [],
      "stateMutability": "nonpayable",
      "type": "function"
    },
    {
      "inputs": [
        {
          "internalType": "address",
          "name": "addr",
          "type": "address"
        }
      ],
      "name": "setUniversesRelayer",
      "outputs": [],
      "stateMutability": "nonpayable",
      "type": "function"
    },
    {
      "inputs": [
        {
          "internalType": "address",
          "name": "addr",
          "type": "address"
        }
      ],
      "name": "setWriter",
      "outputs": [],
      "stateMutability": "nonpayable",
      "type": "function"
    },
    {
      "inputs": [],
      "name": "stakers",
      "outputs": [
        {
          "internalType": "address",
          "name": "",
          "type": "address"
        }
      ],
      "stateMutability": "view",
      "type": "function"
    },
    {
      "inputs": [],
      "name": "superUser",
      "outputs": [
        {
          "internalType": "address",
          "name": "",
          "type": "address"
        }
      ],
      "stateMutability": "view",
      "type": "function"
    },
    {
      "inputs": [],
      "name": "txRelayer",
      "outputs": [
        {
          "internalType": "address",
          "name": "",
          "type": "address"
        }
      ],
      "stateMutability": "view",
      "type": "function"
    },
    {
      "inputs": [
        {
          "internalType": "uint256",
          "name": "verse",
          "type": "uint256"
        }
      ],
      "name": "txRootAtVerse",
      "outputs": [
        {
          "internalType": "bytes32",
          "name": "",
          "type": "bytes32"
        }
      ],
      "stateMutability": "view",
      "type": "function"
    },
    {
      "inputs": [],
      "name": "txRootCurrent",
      "outputs": [
        {
          "internalType": "bytes32",
          "name": "",
          "type": "bytes32"
        }
      ],
      "stateMutability": "view",
      "type": "function"
    },
    {
      "inputs": [],
      "name": "txRootsCurrentVerse",
      "outputs": [
        {
          "internalType": "uint256",
          "name": "",
          "type": "uint256"
        }
      ],
      "stateMutability": "view",
      "type": "function"
    },
    {
      "inputs": [
        {
          "internalType": "uint256",
          "name": "verse",
          "type": "uint256"
        }
      ],
      "name": "txSubmissionTimeAtVerse",
      "outputs": [
        {
          "internalType": "uint256",
          "name": "",
          "type": "uint256"
        }
      ],
      "stateMutability": "view",
      "type": "function"
    },
    {
      "inputs": [],
      "name": "txSubmissionTimeCurrent",
      "outputs": [
        {
          "internalType": "uint256",
          "name": "",
          "type": "uint256"
        }
      ],
      "stateMutability": "view",
      "type": "function"
    },
    {
      "inputs": [
        {
          "internalType": "uint256",
          "name": "universeIdx",
          "type": "uint256"
        }
      ],
      "name": "universeAuthorizesRelay",
      "outputs": [
        {
          "internalType": "bool",
          "name": "",
          "type": "bool"
        }
      ],
      "stateMutability": "view",
      "type": "function"
    },
    {
      "inputs": [
        {
          "internalType": "uint256",
          "name": "universeIdx",
          "type": "uint256"
        }
      ],
      "name": "universeIsClosed",
      "outputs": [
        {
          "internalType": "bool",
          "name": "",
          "type": "bool"
        }
      ],
      "stateMutability": "view",
      "type": "function"
    },
    {
      "inputs": [
        {
          "internalType": "uint256",
          "name": "universeIdx",
          "type": "uint256"
        }
      ],
      "name": "universeIsClosureRequested",
      "outputs": [
        {
          "internalType": "bool",
          "name": "",
          "type": "bool"
        }
      ],
      "stateMutability": "view",
      "type": "function"
    },
    {
      "inputs": [
        {
          "internalType": "uint256",
          "name": "universeIdx",
          "type": "uint256"
        }
      ],
      "name": "universeName",
      "outputs": [
        {
          "internalType": "string",
          "name": "",
          "type": "string"
        }
      ],
      "stateMutability": "view",
      "type": "function"
    },
    {
      "inputs": [
        {
          "internalType": "uint256",
          "name": "universeIdx",
          "type": "uint256"
        }
      ],
      "name": "universeOwner",
      "outputs": [
        {
          "internalType": "address",
          "name": "",
          "type": "address"
        }
      ],
      "stateMutability": "view",
      "type": "function"
    },
    {
      "inputs": [
        {
          "internalType": "uint256",
          "name": "universeIdx",
          "type": "uint256"
        },
        {
          "internalType": "uint256",
          "name": "verse",
          "type": "uint256"
        }
      ],
      "name": "universeRootAtVerse",
      "outputs": [
        {
          "internalType": "bytes32",
          "name": "",
          "type": "bytes32"
        }
      ],
      "stateMutability": "view",
      "type": "function"
    },
    {
      "inputs": [
        {
          "internalType": "uint256",
          "name": "universeIdx",
          "type": "uint256"
        }
      ],
      "name": "universeRootCurrent",
      "outputs": [
        {
          "internalType": "bytes32",
          "name": "",
          "type": "bytes32"
        }
      ],
      "stateMutability": "view",
      "type": "function"
    },
    {
      "inputs": [
        {
          "internalType": "uint256",
          "name": "universeIdx",
          "type": "uint256"
        },
        {
          "internalType": "uint256",
          "name": "verse",
          "type": "uint256"
        }
      ],
      "name": "universeRootSubmissionTimeAtVerse",
      "outputs": [
        {
          "internalType": "uint256",
          "name": "",
          "type": "uint256"
        }
      ],
      "stateMutability": "view",
      "type": "function"
    },
    {
      "inputs": [
        {
          "internalType": "uint256",
          "name": "universeIdx",
          "type": "uint256"
        }
      ],
      "name": "universeRootSubmissionTimeCurrent",
      "outputs": [
        {
          "internalType": "uint256",
          "name": "",
          "type": "uint256"
        }
      ],
      "stateMutability": "view",
      "type": "function"
    },
    {
      "inputs": [
        {
          "internalType": "uint256",
          "name": "universeIdx",
          "type": "uint256"
        }
      ],
      "name": "universeVerse",
      "outputs": [
        {
          "internalType": "uint256",
          "name": "",
          "type": "uint256"
        }
      ],
      "stateMutability": "view",
      "type": "function"
    },
    {
      "inputs": [],
      "name": "universesRelayer",
      "outputs": [
        {
          "internalType": "address",
          "name": "",
          "type": "address"
        }
      ],
      "stateMutability": "view",
      "type": "function"
    },
    {
      "inputs": [
        {
          "internalType": "address",
          "name": "newWriter",
          "type": "address"
        },
        {
          "internalType": "address",
          "name": "newAssetExporter",
          "type": "address"
        },
        {
          "internalType": "address",
          "name": "newDirectory",
          "type": "address"
        }
      ],
      "name": "upgrade",
      "outputs": [],
      "stateMutability": "nonpayable",
      "type": "function"
    },
    {
      "inputs": [],
      "name": "verseInterval",
      "outputs": [
        {
          "internalType": "uint256",
          "name": "",
          "type": "uint256"
        }
      ],
      "stateMutability": "view",
      "type": "function"
    },
    {
      "inputs": [],
      "name": "writer",
      "outputs": [
        {
          "internalType": "address",
          "name": "",
          "type": "address"
        }
      ],
      "stateMutability": "view",
      "type": "function"
    },
    {
      "inputs": [
        {
          "internalType": "string",
          "name": "newPath",
          "type": "string"
        }
      ],
      "name": "setLicense",
      "outputs": [],
      "stateMutability": "nonpayable",
      "type": "function"
    },
    {
      "inputs": [
        {
          "internalType": "uint256",
          "name": "time",
          "type": "uint256"
        }
      ],
      "name": "setTimeWithoutVerseProduction",
      "outputs": [],
      "stateMutability": "nonpayable",
      "type": "function"
    },
    {
      "inputs": [
        {
          "internalType": "uint8",
          "name": "value",
          "type": "uint8"
        }
      ],
      "name": "setLevelsPerChallengeNextVerses",
      "outputs": [],
      "stateMutability": "nonpayable",
      "type": "function"
    },
    {
      "inputs": [
        {
          "internalType": "uint256",
          "name": "newTime",
          "type": "uint256"
        }
      ],
      "name": "setChallengeWindowNextVerses",
      "outputs": [],
      "stateMutability": "nonpayable",
      "type": "function"
    },
    {
      "inputs": [
        {
          "internalType": "uint256",
          "name": "refVerse",
          "type": "uint256"
        },
        {
          "internalType": "uint256",
          "name": "refTime",
          "type": "uint256"
        },
        {
          "internalType": "uint256",
          "name": "vInterval",
          "type": "uint256"
        }
      ],
      "name": "setTXBatchReference",
      "outputs": [],
      "stateMutability": "nonpayable",
      "type": "function"
    },
    {
      "inputs": [
        {
          "internalType": "uint256",
          "name": "universeIdx",
          "type": "uint256"
        },
        {
          "internalType": "address",
          "name": "owner",
          "type": "address"
        },
        {
          "internalType": "bool",
          "name": "authorizesRelay",
          "type": "bool"
        },
        {
          "internalType": "string",
          "name": "name",
          "type": "string"
        }
      ],
      "name": "createUniverse",
      "outputs": [],
      "stateMutability": "nonpayable",
      "type": "function"
    },
    {
      "inputs": [
        {
          "internalType": "uint256",
          "name": "universeIdx",
          "type": "uint256"
        },
        {
          "internalType": "bool",
          "name": "closureRequested",
          "type": "bool"
        },
        {
          "internalType": "bool",
          "name": "closureConfirmed",
          "type": "bool"
        }
      ],
      "name": "changeUniverseClosure",
      "outputs": [],
      "stateMutability": "nonpayable",
      "type": "function"
    },
    {
      "inputs": [
        {
          "internalType": "uint256",
          "name": "universeIdx",
          "type": "uint256"
        },
        {
          "internalType": "string",
          "name": "name",
          "type": "string"
        }
      ],
      "name": "changeUniverseName",
      "outputs": [],
      "stateMutability": "nonpayable",
      "type": "function"
    },
    {
      "inputs": [
        {
          "internalType": "uint256",
          "name": "universeIdx",
          "type": "uint256"
        },
        {
          "internalType": "bool",
          "name": "authorizesRelay",
          "type": "bool"
        }
      ],
      "name": "setUniverseAuthorizesRelay",
      "outputs": [],
      "stateMutability": "nonpayable",
      "type": "function"
    },
    {
      "inputs": [
        {
          "internalType": "uint256",
          "name": "universeIdx",
          "type": "uint256"
        },
        {
          "internalType": "bytes32",
          "name": "newRoot",
          "type": "bytes32"
        },
        {
          "internalType": "uint256",
          "name": "submissionTime",
          "type": "uint256"
        }
      ],
      "name": "pushUniverseRoot",
      "outputs": [
        {
          "internalType": "uint256",
          "name": "verse",
          "type": "uint256"
        }
      ],
      "stateMutability": "nonpayable",
      "type": "function"
    },
    {
      "inputs": [
        {
          "internalType": "bytes32",
          "name": "newRoot",
          "type": "bytes32"
        }
      ],
      "name": "setLastOwnershipRoot",
      "outputs": [],
      "stateMutability": "nonpayable",
      "type": "function"
    },
    {
      "inputs": [
        {
          "internalType": "uint256",
          "name": "newTime",
          "type": "uint256"
        }
      ],
      "name": "setLastOwnershipSubmissionTime",
      "outputs": [],
      "stateMutability": "nonpayable",
      "type": "function"
    },
    {
      "inputs": [],
      "name": "deleteChallenges",
      "outputs": [],
      "stateMutability": "nonpayable",
      "type": "function"
    },
    {
      "inputs": [
        {
          "internalType": "bytes32",
          "name": "newTXsRoot",
          "type": "bytes32"
        },
        {
          "internalType": "uint256",
          "name": "submissionTime",
          "type": "uint256"
        },
        {
          "internalType": "uint256",
          "name": "nTXs",
          "type": "uint256"
        },
        {
          "internalType": "uint8",
          "name": "levelVeriableByBC",
          "type": "uint8"
        }
      ],
      "name": "pushTXRoot",
      "outputs": [
        {
          "internalType": "uint256",
          "name": "txVerse",
          "type": "uint256"
        }
      ],
      "stateMutability": "nonpayable",
      "type": "function"
    },
    {
      "inputs": [
        {
          "internalType": "bytes32",
          "name": "newOwnershipRoot",
          "type": "bytes32"
        },
        {
          "internalType": "uint256",
          "name": "submissionTime",
          "type": "uint256"
        }
      ],
      "name": "pushOwnershipRoot",
      "outputs": [
        {
          "internalType": "uint256",
          "name": "ownVerse",
          "type": "uint256"
        }
      ],
      "stateMutability": "nonpayable",
      "type": "function"
    },
    {
      "inputs": [
        {
          "internalType": "bytes32",
          "name": "ownershipRoot",
          "type": "bytes32"
        },
        {
          "internalType": "bytes32",
          "name": "transitionsRoot",
          "type": "bytes32"
        },
        {
          "internalType": "bytes32",
          "name": "rootAtEdge",
          "type": "bytes32"
        },
        {
          "internalType": "uint256",
          "name": "pos",
          "type": "uint256"
        }
      ],
      "name": "pushChallenge",
      "outputs": [],
      "stateMutability": "nonpayable",
      "type": "function"
    },
    {
      "inputs": [
        {
          "internalType": "uint256",
          "name": "universeId",
          "type": "uint256"
        }
      ],
      "name": "popUniverseRoot",
      "outputs": [
        {
          "internalType": "uint256",
          "name": "verse",
          "type": "uint256"
        }
      ],
      "stateMutability": "nonpayable",
      "type": "function"
    },
    {
      "inputs": [],
      "name": "popChallenge",
      "outputs": [],
      "stateMutability": "nonpayable",
      "type": "function"
    },
    {
      "inputs": [
        {
          "internalType": "uint256",
          "name": "assetId",
          "type": "uint256"
        },
        {
          "internalType": "address",
          "name": "owner",
          "type": "address"
        },
        {
          "internalType": "uint256",
          "name": "requestVerse",
          "type": "uint256"
        },
        {
          "internalType": "uint256",
          "name": "completedVerse",
          "type": "uint256"
        }
      ],
      "name": "setExportInfo",
      "outputs": [],
      "stateMutability": "nonpayable",
      "type": "function"
    },
    {
      "inputs": [],
      "name": "addClaim",
      "outputs": [],
      "stateMutability": "nonpayable",
      "type": "function"
    },
    {
      "inputs": [
        {
          "internalType": "uint256",
          "name": "claimIdx",
          "type": "uint256"
        },
        {
          "internalType": "uint256",
          "name": "key",
          "type": "uint256"
        },
        {
          "internalType": "uint256",
          "name": "verse",
          "type": "uint256"
        },
        {
          "internalType": "string",
          "name": "value",
          "type": "string"
        }
      ],
      "name": "setClaim",
      "outputs": [],
      "stateMutability": "nonpayable",
      "type": "function"
    }
  ],
  "bytecode": "0x60806040523480156200001157600080fd5b5060405162003bd538038062003bd583398101604081905262000034916200040b565b60405180606001604052806035815260200162003ba0603591398051620000649160009160209091019062000348565b50600180546001600160a01b038085166001600160a01b03199283161783556003805491851691909216179055600d805460ff1916600417905562093a80600b55600f55610384600e819055620000bc904262000443565b600e54620000cb90426200047c565b620000d7919062000497565b60105550506040805160c08101825260008082526020808301828152838501838152600360608087019182526004608080890182815260a08a018981526012805460018181018355918c529b516005909c027fbb8a6a4669ba250d26cd7a459eca9d215f8307e33aebe50379bc5a3617ec344481019c909c5597517fbb8a6a4669ba250d26cd7a459eca9d215f8307e33aebe50379bc5a3617ec34458c015595517fbb8a6a4669ba250d26cd7a459eca9d215f8307e33aebe50379bc5a3617ec34468b015593517fbb8a6a4669ba250d26cd7a459eca9d215f8307e33aebe50379bc5a3617ec34478a018054955160ff9081166101000261ffff199097169216919091179490941790935592517fbb8a6a4669ba250d26cd7a459eca9d215f8307e33aebe50379bc5a3617ec3448909701969096558651808801885285815280850184815260138054808701825590885291516002929092027f66de8ffda797e3de9c05e8fc57b3bf0ec28a930d40b0d285d93c06501cf6a090810192909255517f66de8ffda797e3de9c05e8fc57b3bf0ec28a930d40b0d285d93c06501cf6a0919091015586519081018752848152928301848152958301848152948301848152601480549384018155909452915191027fce6d7b5282bd9a3661ae061feed1dbda4e52ab073b1f9285be6e155d9c38d4ec81019190915592517fce6d7b5282bd9a3661ae061feed1dbda4e52ab073b1f9285be6e155d9c38d4ed84015590517fce6d7b5282bd9a3661ae061feed1dbda4e52ab073b1f9285be6e155d9c38d4ee830155517fce6d7b5282bd9a3661ae061feed1dbda4e52ab073b1f9285be6e155d9c38d4ef90910155620004ee565b8280546200035690620004b1565b90600052602060002090601f0160209004810192826200037a5760008555620003c5565b82601f106200039557805160ff1916838001178555620003c5565b82800160010185558215620003c5579182015b82811115620003c5578251825591602001919060010190620003a8565b50620003d3929150620003d7565b5090565b5b80821115620003d35760008155600101620003d8565b80516001600160a01b03811681146200040657600080fd5b919050565b600080604083850312156200041f57600080fd5b6200042a83620003ee565b91506200043a60208401620003ee565b90509250929050565b6000826200046157634e487b7160e01b600052601260045260246000fd5b500690565b634e487b7160e01b600052601160045260246000fd5b6000821982111562000492576200049262000466565b500190565b600082821015620004ac57620004ac62000466565b500390565b600181811c90821680620004c657607f821691505b60208210811415620004e857634e487b7160e01b600052602260045260246000fd5b50919050565b6136a280620004fe6000396000f3fe608060405234801561001057600080fd5b506004361061050f5760003560e01c80637c918191116102a4578063b65c630b11610172578063e0fdfaf8116100d9578063f3076c3a11610092578063f3076c3a14610b63578063fd31e0f714610b76578063fd5a649914610b89578063fed1252a14610b9c578063fef1ccb314610bad578063ff1fd68b14610bb557600080fd5b8063e0fdfaf814610b07578063ee2d393f14610b0f578063f000999e14610b22578063f02a82ba14610b35578063f11eed2014610b48578063f2051cea14610b5b57600080fd5b8063c27dbe631161012b578063c27dbe6314610a94578063c349026314610aa7578063c41c2f2414610ac8578063c8d0ca1514610ad9578063d7912daa14610aec578063ddf37ff014610af457600080fd5b8063b65c630b14610a26578063b79becb214610a37578063b7aee24614610a4a578063bb5e6cae14610a5d578063bc3b290e14610a6e578063bf8bcbb114610a8157600080fd5b8063a07ed67211610216578063aba3e111116101cf578063aba3e11114610952578063acd5b14a14610963578063ad80ae6e14610976578063afd8802c14610989578063b4a750b614610a00578063b5dc17e214610a1357600080fd5b8063a07ed67214610903578063a0aa562e1461090b578063a12cdbad1461091c578063a508c98714610924578063a6c2685114610937578063a78a173c1461093f57600080fd5b80638605ddd4116102685780638605ddd4146108b25780638cd9ed99146108ba57806393a8c6da146108cd57806395592de7146108e05780639cf55f04146108f35780639d460345146108fb57600080fd5b80637c918191146108605780637e2f7fc0146108735780637f6ec07414610886578063831136641461089757806384fc0fec1461089f57600080fd5b8063493f3ce6116103e1578063642fcba3116103535780636e91818a1161030c5780636e91818a146107de5780636eb9258a146107f157806371435c7b146107f957806374ccb7e6146108015780637631f44d1461082a5780637701cf071461084d57600080fd5b8063642fcba314610777578063657aea9f1461078a578063668900ec146107925780636904c94d146107a557806369af5c04146107b65780636b87d24c146107c957600080fd5b80635a3c7d26116103a55780635a3c7d26146107285780635aca800e1461073b5780635c0563b3146107435780635ddce8f4146107545780635fb4f3ff1461075c57806363fba44a1461076f57600080fd5b8063493f3ce6146106c45780634c552d2e146106d75780634eb206af146106ea578063525f9d4c1461070d5780635759abba1461071557600080fd5b80632f50b425116104855780633b45d5901161043e5780633b45d5901461064e5780633faeb39f146106565780634000982c14610669578063407450fb1461067c578063453a2abc14610694578063456c405a146106b957600080fd5b80632f50b425146105e75780632f7ba61d146105fa5780632fc393621461060d57806335170071146106205780633750d30d1461062857806339e205231461063b57600080fd5b806313efebd4116104d757806313efebd41461058057806313fc2aea1461059357806318a4199b146105a65780631ddfa52c146105b957806322af10f4146105cc5780632a0471bb146105d457600080fd5b80630738ccce14610514578063082a25a31461052b5780630896be21146105455780630c9ca6361461055a5780630f4468911461056d575b600080fd5b600e545b6040519081526020015b60405180910390f35b610533610bc8565b60405160ff9091168152602001610522565b610558610553366004612e0a565b610c08565b005b610518610568366004612e23565b610c76565b61055861057b366004612e45565b610d31565b61051861058e366004612e23565b610db1565b6105186105a1366004612e82565b610dfb565b6105586105b4366004612edf565b610e2c565b6105586105c7366004612e82565b610ede565b610518610f51565b6105186105e2366004612e45565b610f8c565b6105586105f5366004612f42565b61106c565b610558610608366004612f6e565b611138565b61055861061b366004612f6e565b6111b0565b610558611228565b610518610636366004612e0a565b611260565b610558610649366004612f6e565b611363565b6105186113db565b610558610664366004612e0a565b611416565b610518610677366004612e0a565b611477565b6106846114ad565b6040519015158152602001610522565b6007546001600160a01b03165b6040516001600160a01b039091168152602001610522565b600d5460ff16610533565b6105186106d2366004612e0a565b6114f1565b6105186106e5366004612e23565b61156d565b6105186106f8366004612e0a565b60009081526015602052604090206002015490565b601154610518565b610518610723366004612e82565b6115a4565b61055861073636600461302c565b6115d5565b610518611642565b6004546001600160a01b03166106a1565b600f54610518565b61055861076a366004613061565b611659565b6105586116ef565b610518610785366004612e0a565b6117b3565b6105186117e1565b6105586107a0366004612f6e565b6117f3565b6001546001600160a01b03166106a1565b6105586107c43660046130cb565b61189b565b6107d1611b5b565b6040516105229190613187565b6105586107ec366004612f6e565b611bed565b600b54610518565b610518611c65565b6106a161080f366004612e0a565b6000908152601560205260409020546001600160a01b031690565b610518610838366004612e0a565b60009081526015602052604090206001015490565b61055861085b36600461319a565b611ca0565b61055861086e366004612f6e565b611d99565b610518610881366004612e0a565b611e11565b6009546001600160a01b03166106a1565b610558611e6b565b6106846108ad366004612e0a565b611ea3565b610518611ed5565b6105586108c8366004612f6e565b611f10565b6105186108db366004612e0a565b611fb8565b6106846108ee366004612e0a565b611fe6565b601054610518565b610518612018565b610518612053565b6002546001600160a01b03166106a1565b61051861206b565b6105186109323660046131cc565b6120a6565b600c54610518565b61055861094d366004612e0a565b612216565b6005546001600160a01b03166106a1565b610533610971366004612e0a565b612275565b610518610984366004612e82565b6122ac565b6109db610997366004612e0a565b600081815260156020908152604091829020825160608101845281546001600160a01b03168082526001830154938201849052600290920154930183905293909250565b604080516001600160a01b039094168452602084019290925290820152606001610522565b6106a1610a0e366004612e0a565b6122dd565b610558610a21366004612f6e565b612312565b6003546001600160a01b03166106a1565b610518610a45366004612e0a565b61238a565b610558610a5836600461320b565b6123b8565b6008546001600160a01b03166106a1565b610684610a7c366004612e0a565b61250e565b610558610a8f36600461322e565b612545565b610558610aa2366004612f6e565b612607565b610aba610ab5366004612e23565b61267f565b604051610522929190613269565b600a546001600160a01b03166106a1565b610518610ae7366004612e82565b612773565b6105586127a4565b610558610b02366004612e0a565b61280d565b601654610518565b6107d1610b1d366004612e0a565b6128f2565b610558610b30366004613282565b6129a8565b610518610b43366004612e0a565b6129f2565b610518610b56366004612e0a565b612acb565b610533612af9565b610558610b713660046132c5565b612b41565b610533610b84366004612e0a565b612be8565b610518610b97366004612e0a565b612c1a565b6006546001600160a01b03166106a1565b601454610533565b610518610bc3366004612e0a565b612c48565b6012805460009190610bdc9060019061330e565b81548110610bec57610bec613325565b600091825260209091206003600590920201015460ff16919050565b6007546001600160a01b03163314610c3b5760405162461bcd60e51b8152600401610c329061333b565b60405180910390fd5b60138054829190610c4e9060019061330e565b81548110610c5e57610c5e613325565b90600052602060002090600202016001018190555050565b6007546000906001600160a01b03163314610ca35760405162461bcd60e51b8152600401610c329061333b565b60408051808201909152838152602081018381526013805460018082018355600083905293517f66de8ffda797e3de9c05e8fc57b3bf0ec28a930d40b0d285d93c06501cf6a09060029092029182015591517f66de8ffda797e3de9c05e8fc57b3bf0ec28a930d40b0d285d93c06501cf6a0919092019190915554610d28919061330e565b90505b92915050565b6003546001600160a01b03163314610d5b5760405162461bcd60e51b8152600401610c329061337f565b600f839055600e819055601082905560408051848152602081018490529081018290527f6e244dae961347e3ce4fd2a138d45443c9eb169b632a6a53c3c20ed0f9766576906060015b60405180910390a1505050565b600060118381548110610dc657610dc6613325565b90600052602060002090600602016004018281548110610de857610de8613325565b9060005260206000200154905092915050565b600060148260ff1681548110610e1357610e13613325565b9060005260206000209060040201600201549050919050565b6003546001600160a01b03163314610e565760405162461bcd60e51b8152600401610c329061337f565b6011548310610e775760405162461bcd60e51b8152600401610c32906133b6565b818160118581548110610e8c57610e8c613325565b90600052602060002090600602016001019190610eaa929190612c76565b507f42df5d43e15a953d2d6198762d21925de66d371d476d65f08118f2929c1fd69e838383604051610da493929190613416565b6003546001600160a01b03163314610f085760405162461bcd60e51b8152600401610c329061337f565b600d805460ff191660ff83169081179091556040519081527f7fba6926de51b3edc8dc81067039026003ca0ba5591334b4c09b3af7839eee8d906020015b60405180910390a150565b6012805460009190610f659060019061330e565b81548110610f7557610f75613325565b906000526020600020906005020160010154905090565b6007546000906001600160a01b03163314610fb95760405162461bcd60e51b8152600401610c329061333b565b60118481548110610fcc57610fcc613325565b600091825260208083206003600690930201919091018054600181018255908352912001839055601180548590811061100757611007613325565b600091825260208083206004600690930201919091018054600181810183559184529190922001839055601180548690811061104557611045613325565b906000526020600020906006020160030180549050611064919061330e565b949350505050565b6003546001600160a01b031633146110965760405162461bcd60e51b8152600401610c329061337f565b60115482106110b75760405162461bcd60e51b8152600401610c32906133b6565b80601183815481106110cb576110cb613325565b60009182526020918290206006919091020180546001600160a01b0319166001600160a01b0393841617905560408051858152928416918301919091527f2d62744ef43e8c92f99d083af395a1633452ea704ab0081c6b30f268aed3dbff91015b60405180910390a15050565b6003546001600160a01b031633146111625760405162461bcd60e51b8152600401610c329061337f565b600980546001600160a01b0319166001600160a01b0383169081179091556040519081527f5011e818b49220daee27635f4a408039f9f515641a82765a1331b72e0452abd790602001610f46565b6003546001600160a01b031633146111da5760405162461bcd60e51b8152600401610c329061337f565b600880546001600160a01b0319166001600160a01b0383169081179091556040519081527f7cf870be89dfe732e2832b1f964a12cf8bbf95e8ae3dc387313dc9d446ad920a90602001610f46565b6007546001600160a01b031633146112525760405162461bcd60e51b8152600401610c329061333b565b61125e60146000612cfa565b565b600061126a610bc8565b60ff1661127660145490565b611281906001613430565b60ff16146112ed5760405162461bcd60e51b815260206004820152603360248201527f6e6f7420656e6f756768206368616c6c656e67657320746f20636f6d7075746560448201527220626f74746f6d4c6576656c4c656166506f7360681b6064820152608401610c32565b508060006112f9612053565b90506000600161130860145490565b6113129190613455565b90505b60ff81161561135c5781611328826122ac565b6113329190613478565b61133c9084613497565b92506113488280613478565b915080611354816134af565b915050611315565b5050919050565b6003546001600160a01b0316331461138d5760405162461bcd60e51b8152600401610c329061337f565b600780546001600160a01b0319166001600160a01b0383169081179091556040519081527faeb21c17700312600e026f4556987a951607cd062905c09d273d1a8cd5d8981490602001610f46565b60128054600091906113ef9060019061330e565b815481106113ff576113ff613325565b906000526020600020906005020160040154905090565b6007546001600160a01b031633146114405760405162461bcd60e51b8152600401610c329061333b565b601380548291906114539060019061330e565b8154811061146357611463613325565b600091825260209091206002909102015550565b600060016011838154811061148e5761148e613325565b906000526020600020906006020160030180549050610d2b919061330e565b6000805b60145460ff168160ff1610156114e9576114ca816122ac565b156114d757600091505090565b806114e1816134cc565b9150506114b1565b506001905090565b60006011828154811061150657611506613325565b906000526020600020906006020160030160016011848154811061152c5761152c613325565b90600052602060002090600602016003018054905061154b919061330e565b8154811061155b5761155b613325565b90600052602060002001549050919050565b60006011838154811061158257611582613325565b90600052602060002090600602016003018281548110610de857610de8613325565b600060148260ff16815481106115bc576115bc613325565b9060005260206000209060040201600001549050919050565b6003546001600160a01b031633146115ff5760405162461bcd60e51b8152600401610c329061337f565b8051611612906000906020840190612d1e565b507f7d67ddeae202c7d714fdf9298cfb3bfb1533ad3611fef25f37f4e91bd7b41ec581604051610f469190613187565b6012546000906116549060019061330e565b905090565b6007546001600160a01b031633146116835760405162461bcd60e51b8152600401610c329061333b565b6000604051806040016040528084815260200183815250905080601686815481106116b0576116b0613325565b60009182526020808320888452909101815260409091208251815582820151805191926116e592600185019290910190612d1e565b5050505050505050565b6002546001600160a01b031633146117555760405162461bcd60e51b8152602060048201526024808201527f6f6e6c792070726f706f736564206f776e65722063616e206265636f6d65206f6044820152633bb732b960e11b6064820152608401610c32565b60028054600180546001600160a01b0383166001600160a01b031991821681179092559091169091556040519081527fcb06c2b3716d514ba6c4ded96f80167d09432e22a754b64a08cd180a26546ce09060200160405180910390a1565b6000601282815481106117c8576117c8613325565b9060005260206000209060050201600401549050919050565b6013546000906116549060019061330e565b6001546001600160a01b0316331461184d5760405162461bcd60e51b815260206004820152601b60248201527f4f6e6c7920636f6d70616e7920697320617574686f72697a65642e00000000006044820152606401610c32565b600280546001600160a01b0319166001600160a01b0383169081179091556040519081527f1f2ec7a529743d4346fb5f728264b3f62a65660b75a2b8b34387d12caaa9ac7590602001610f46565b6003546001600160a01b031633146118c55760405162461bcd60e51b8152600401610c329061337f565b846118cf60115490565b1461193a5760405162461bcd60e51b815260206004820152603560248201527f637265617465556e6976657273653a20756e69766572736549647820646f6573604482015274206e6f7420657175616c206e556e6976657273657360581b6064820152608401610c32565b604080516001808252818301909252600091602080830190803683370190505090506000801b8160008151811061197357611973613325565b602090810291909101015260408051600180825281830190925260009181602001602082028036833701905050905042816000815181106119b6576119b6613325565b60200260200101818152505060116040518060e00160405280886001600160a01b0316815260200186868080601f016020809104026020016040519081016040528093929190818152602001838380828437600092018290525093855250505088151560208084019190915260408301879052606083018690526080830182905260a090920181905283546001808201865594825290829020835160069092020180546001600160a01b0319166001600160a01b0390921691909117815582820151805193949193611a9093928501929190910190612d1e565b50604082015160028201805460ff191691151591909117905560608201518051611ac4916003840191602090910190612d92565b5060808201518051611ae0916004840191602090910190612d92565b5060a08201516005909101805460c09093015115156101000261ff00199215159290921661ffff19909316929092171790556040517f5366786000682dfbcc1031239f76d4ed1ceeeb15915b20d4aef17987cdfa842490611b4a9089908990889088908b906134ec565b60405180910390a150505050505050565b606060008054611b6a9061352b565b80601f0160208091040260200160405190810160405280929190818152602001828054611b969061352b565b8015611be35780601f10611bb857610100808354040283529160200191611be3565b820191906000526020600020905b815481529060010190602001808311611bc657829003601f168201915b5050505050905090565b6003546001600160a01b03163314611c175760405162461bcd60e51b8152600401610c329061337f565b600a80546001600160a01b0319166001600160a01b0383169081179091556040519081527fa76523eacc34f9525272e606a64d8fdd1d289a9b31061b19af6c7650b2e2525990602001610f46565b6012805460009190611c799060019061330e565b81548110611c8957611c89613325565b906000526020600020906005020160020154905090565b6007546001600160a01b03163314611cca5760405162461bcd60e51b8152600401610c329061333b565b60408051608081018252948552602085019384528401918252606084019081526014805460018101825560009190915293517fce6d7b5282bd9a3661ae061feed1dbda4e52ab073b1f9285be6e155d9c38d4ec60049095029485015591517fce6d7b5282bd9a3661ae061feed1dbda4e52ab073b1f9285be6e155d9c38d4ed840155517fce6d7b5282bd9a3661ae061feed1dbda4e52ab073b1f9285be6e155d9c38d4ee830155517fce6d7b5282bd9a3661ae061feed1dbda4e52ab073b1f9285be6e155d9c38d4ef90910155565b6003546001600160a01b03163314611dc35760405162461bcd60e51b8152600401610c329061337f565b600480546001600160a01b0319166001600160a01b0383169081179091556040519081527f220bfb84edf1f15efed700488336d50dbe5ba9df0e6ff5ab579aa0e7fb9fd54290602001610f46565b600060118281548110611e2657611e26613325565b9060005260206000209060060201600401600160118481548110611e4c57611e4c613325565b90600052602060002090600602016004018054905061154b919061330e565b6003546001600160a01b03163314611e955760405162461bcd60e51b8152600401610c329061337f565b601680546001018155600052565b600060118281548110611eb857611eb8613325565b600091825260209091206002600690920201015460ff1692915050565b6012805460009190611ee99060019061330e565b81548110611ef957611ef9613325565b906000526020600020906005020160000154905090565b6001546001600160a01b03163314611f6a5760405162461bcd60e51b815260206004820152601b60248201527f4f6e6c7920636f6d70616e7920697320617574686f72697a65642e00000000006044820152606401610c32565b600380546001600160a01b0319166001600160a01b0383169081179091556040519081527f125051b9b70da6434cb6a126f98846cf1c7ff5b6dc1bce0c7396f9de588a1b9a90602001610f46565b600060138281548110611fcd57611fcd613325565b9060005260206000209060020201600101549050919050565b600060118281548110611ffb57611ffb613325565b600091825260209091206005600690920201015460ff1692915050565b601380546000919061202c9060019061330e565b8154811061203c5761203c613325565b906000526020600020906002020160010154905090565b600061205d612af9565b6116549060ff16600261364a565b601380546000919061207f9060019061330e565b8154811061208f5761208f613325565b906000526020600020906002020160000154905090565b6007546000906001600160a01b031633146120d35760405162461bcd60e51b8152600401610c329061333b565b6040805160c0810182528681526020810186815291810185815260ff80861660608401908152600d54821660808501908152600c5460a0860190815260128054600181810183556000839052975160059091027fbb8a6a4669ba250d26cd7a459eca9d215f8307e33aebe50379bc5a3617ec344481019190915597517fbb8a6a4669ba250d26cd7a459eca9d215f8307e33aebe50379bc5a3617ec344589015594517fbb8a6a4669ba250d26cd7a459eca9d215f8307e33aebe50379bc5a3617ec344688015591517fbb8a6a4669ba250d26cd7a459eca9d215f8307e33aebe50379bc5a3617ec344787018054925185166101000261ffff19909316919094161717909155517fbb8a6a4669ba250d26cd7a459eca9d215f8307e33aebe50379bc5a3617ec344890930192909255905461220d919061330e565b95945050505050565b6003546001600160a01b031633146122405760405162461bcd60e51b8152600401610c329061337f565b600c8190556040518181527f0432933fc4f91d7d46ccc990f0478c4f36be6652bbb3c10b47139d6482a0763890602001610f46565b60006012828154811061228a5761228a613325565b6000918252602090912060059091020160030154610100900460ff1692915050565b600060148260ff16815481106122c4576122c4613325565b9060005260206000209060040201600301549050919050565b6000601182815481106122f2576122f2613325565b60009182526020909120600690910201546001600160a01b031692915050565b6003546001600160a01b0316331461233c5760405162461bcd60e51b8152600401610c329061337f565b600580546001600160a01b0319166001600160a01b0383169081179091556040519081527ff082bc9f8debcb37bcfe1770eb380e701f70a45d45a25fc59313d71dcab4e27490602001610f46565b60006012828154811061239f5761239f613325565b9060005260206000209060050201600101549050919050565b6003546001600160a01b031633146123e25760405162461bcd60e51b8152600401610c329061337f565b60115482106124035760405162461bcd60e51b8152600401610c32906133b6565b6011828154811061241657612416613325565b600091825260209091206006909102016002015460ff16151581151514156124965760405162461bcd60e51b815260206004820152602d60248201527f756e69766572736520617574682072656c61792076616c756520616c7265616460448201526c1e48185cc81c1c9bdd9a591959609a1b6064820152608401610c32565b80601183815481106124aa576124aa613325565b906000526020600020906006020160020160006101000a81548160ff0219169083151502179055507fb6db0b76a256f8a1a6675668f7f7cf84e2de24c201cee091a5c7dc78bfe44589828260405161112c9291909182521515602082015260400190565b60006011828154811061252357612523613325565b6000918252602090912060069091020160050154610100900460ff1692915050565b6008546001600160a01b031633146125b25760405162461bcd60e51b815260206004820152602a60248201527f4f6e6c792061737365744578706f7274657220636f6e747261637420697320616044820152693aba3437b934bd32b21760b11b6064820152608401610c32565b604080516060810182526001600160a01b03948516815260208082019485528183019384526000968752601590529420935184546001600160a01b031916931692909217835551600183015551600290910155565b6003546001600160a01b031633146126315760405162461bcd60e51b8152600401610c329061337f565b600680546001600160a01b0319166001600160a01b0383169081179091556040519081527f4c9c2b51d3d2a2337a3170ccb9157d36226b5ee09fcf797aac760feed1aaba1890602001610f46565b6000606060006016858154811061269857612698613325565b906000526020600020016000858152602001908152602001600020604051806040016040529081600082015481526020016001820180546126d89061352b565b80601f01602080910402602001604051908101604052809291908181526020018280546127049061352b565b80156127515780601f1061272657610100808354040283529160200191612751565b820191906000526020600020905b81548152906001019060200180831161273457829003601f168201915b50505050508152505090508060000151816020015192509250505b9250929050565b600060148260ff168154811061278b5761278b613325565b9060005260206000209060040201600101549050919050565b6007546001600160a01b031633146127ce5760405162461bcd60e51b8152600401610c329061333b565b60148054806127df576127df613656565b6000828152602081206004600019909301928302018181556001810182905560028101829055600301559055565b6003546001600160a01b031633146128375760405162461bcd60e51b8152600401610c329061337f565b62278d0081106128bd5760405162461bcd60e51b8152602060048201526044602482018190527f73657454696d65576974686f7574566572736550726f64756374696f6e3a2063908201527f616e6e6f742073657420612074696d65206c6172676572207468616e2031206d6064820152630dedce8d60e31b608482015260a401610c32565b600b8190556040518181527f351184b7f909b3c687932fc8299e7dd54fdc26dcbd83ff56023be032e78c741690602001610f46565b60606011828154811061290757612907613325565b906000526020600020906006020160010180546129239061352b565b80601f016020809104026020016040519081016040528092919081815260200182805461294f9061352b565b801561299c5780601f106129715761010080835404028352916020019161299c565b820191906000526020600020905b81548152906001019060200180831161297f57829003601f168201915b50505050509050919050565b6003546001600160a01b031633146129d25760405162461bcd60e51b8152600401610c329061337f565b6129db83611363565b6129e4826111b0565b6129ed81611bed565b505050565b6007546000906001600160a01b03163314612a1f5760405162461bcd60e51b8152600401610c329061333b565b60118281548110612a3257612a32613325565b9060005260206000209060060201600301805480612a5257612a52613656565b6001900381819060005260206000200160009055905560118281548110612a7b57612a7b613325565b9060005260206000209060060201600401805480612a9b57612a9b613656565b6001900381819060005260206000200160009055905560016011838154811061148e5761148e613325565b919050565b600060128281548110612ae057612ae0613325565b9060005260206000209060050201600001549050919050565b6012805460009190612b0d9060019061330e565b81548110612b1d57612b1d613325565b906000526020600020906005020160030160019054906101000a900460ff16905090565b6007546001600160a01b03163314612b6b5760405162461bcd60e51b8152600401610c329061333b565b8160118481548110612b7f57612b7f613325565b906000526020600020906006020160050160006101000a81548160ff0219169083151502179055508060118481548110612bbb57612bbb613325565b906000526020600020906006020160050160016101000a81548160ff021916908315150217905550505050565b600060128281548110612bfd57612bfd613325565b600091825260209091206003600590920201015460ff1692915050565b600060138281548110612c2f57612c2f613325565b9060005260206000209060020201600001549050919050565b600060128281548110612c5d57612c5d613325565b9060005260206000209060050201600201549050919050565b828054612c829061352b565b90600052602060002090601f016020900481019282612ca45760008555612cea565b82601f10612cbd5782800160ff19823516178555612cea565b82800160010185558215612cea579182015b82811115612cea578235825591602001919060010190612ccf565b50612cf6929150612dcc565b5090565b5080546000825560040290600052602060002090810190612d1b9190612de1565b50565b828054612d2a9061352b565b90600052602060002090601f016020900481019282612d4c5760008555612cea565b82601f10612d6557805160ff1916838001178555612cea565b82800160010185558215612cea579182015b82811115612cea578251825591602001919060010190612d77565b828054828255906000526020600020908101928215612cea5791602002820182811115612cea578251825591602001919060010190612d77565b5b80821115612cf65760008155600101612dcd565b5b80821115612cf657600080825560018201819055600282018190556003820155600401612de2565b600060208284031215612e1c57600080fd5b5035919050565b60008060408385031215612e3657600080fd5b50508035926020909101359150565b600080600060608486031215612e5a57600080fd5b505081359360208301359350604090920135919050565b803560ff81168114612ac657600080fd5b600060208284031215612e9457600080fd5b610d2882612e71565b60008083601f840112612eaf57600080fd5b50813567ffffffffffffffff811115612ec757600080fd5b60208301915083602082850101111561276c57600080fd5b600080600060408486031215612ef457600080fd5b83359250602084013567ffffffffffffffff811115612f1257600080fd5b612f1e86828701612e9d565b9497909650939450505050565b80356001600160a01b0381168114612ac657600080fd5b60008060408385031215612f5557600080fd5b82359150612f6560208401612f2b565b90509250929050565b600060208284031215612f8057600080fd5b610d2882612f2b565b634e487b7160e01b600052604160045260246000fd5b600082601f830112612fb057600080fd5b813567ffffffffffffffff80821115612fcb57612fcb612f89565b604051601f8301601f19908116603f01168101908282118183101715612ff357612ff3612f89565b8160405283815286602085880101111561300c57600080fd5b836020870160208301376000602085830101528094505050505092915050565b60006020828403121561303e57600080fd5b813567ffffffffffffffff81111561305557600080fd5b61106484828501612f9f565b6000806000806080858703121561307757600080fd5b843593506020850135925060408501359150606085013567ffffffffffffffff8111156130a357600080fd5b6130af87828801612f9f565b91505092959194509250565b80358015158114612ac657600080fd5b6000806000806000608086880312156130e357600080fd5b853594506130f360208701612f2b565b9350613101604087016130bb565b9250606086013567ffffffffffffffff81111561311d57600080fd5b61312988828901612e9d565b969995985093965092949392505050565b6000815180845260005b8181101561316057602081850181015186830182015201613144565b81811115613172576000602083870101525b50601f01601f19169290920160200192915050565b602081526000610d28602083018461313a565b600080600080608085870312156131b057600080fd5b5050823594602084013594506040840135936060013592509050565b600080600080608085870312156131e257600080fd5b84359350602085013592506040850135915061320060608601612e71565b905092959194509250565b6000806040838503121561321e57600080fd5b82359150612f65602084016130bb565b6000806000806080858703121561324457600080fd5b8435935061325460208601612f2b565b93969395505050506040820135916060013590565b828152604060208201526000611064604083018461313a565b60008060006060848603121561329757600080fd5b6132a084612f2b565b92506132ae60208501612f2b565b91506132bc60408501612f2b565b90509250925092565b6000806000606084860312156132da57600080fd5b833592506132ea602085016130bb565b91506132bc604085016130bb565b634e487b7160e01b600052601160045260246000fd5b600082821015613320576133206132f8565b500390565b634e487b7160e01b600052603260045260246000fd5b60208082526024908201527f4f6e6c79207570646174657320636f6e747261637420697320617574686f72696040820152633d32b21760e11b606082015260800190565b6020808252601d908201527f4f6e6c792073757065725573657220697320617574686f72697a65642e000000604082015260600190565b6020808252601a908201527f756e69766572736549647820646f6573206e6f74206578697374000000000000604082015260600190565b81835281816020850137506000828201602090810191909152601f909101601f19169091010190565b83815260406020820152600061220d6040830184866133ed565b600060ff821660ff84168060ff0382111561344d5761344d6132f8565b019392505050565b600060ff821660ff84168082101561346f5761346f6132f8565b90039392505050565b6000816000190483118215151615613492576134926132f8565b500290565b600082198211156134aa576134aa6132f8565b500190565b600060ff8216806134c2576134c26132f8565b6000190192915050565b600060ff821660ff8114156134e3576134e36132f8565b60010192915050565b8581526001600160a01b038516602082015260806040820181905260009061351790830185876133ed565b905082151560608301529695505050505050565b600181811c9082168061353f57607f821691505b6020821081141561356057634e487b7160e01b600052602260045260246000fd5b50919050565b600181815b808511156135a1578160001904821115613587576135876132f8565b8085161561359457918102915b93841c939080029061356b565b509250929050565b6000826135b857506001610d2b565b816135c557506000610d2b565b81600181146135db57600281146135e557613601565b6001915050610d2b565b60ff8411156135f6576135f66132f8565b50506001821b610d2b565b5060208310610133831016604e8410600b8410161715613624575081810a610d2b565b61362e8383613566565b8060001904821115613642576136426132f8565b029392505050565b6000610d2883836135a9565b634e487b7160e01b600052603160045260246000fdfea2646970667358221220ea5bd56f0e5078dda4372f18497a1187470e1218f56d4803107dd01770b96eb164736f6c634300080b0033697066733a2f2f516d536954533177665971776a6f5538636f7a36553332374145734a3669535653636355647a374d4a6170413743",
  "immutableReferences": {},
  "source": "// SPDX-License-Identifier: BUSL-1.1\n// License details specified at address returned by calling the function: license()\npragma solidity =0.8.11;\n\n/**\n @title Main Storage of the Living Assets Platform\n @author Freeverse.io, www.freeverse.io\n @dev Responsible for all storage, including upgrade of addresses\n @dev to external contracts that manage updates/challenges \n*/\n\nimport \"../interfaces/IStorage.sol\";\nimport \"../storage/RolesSetters.sol\";\n\ncontract Storage is IStorage, RolesSetters {\n    constructor(address company, address superUser) {\n        _license = \"ipfs://QmSiTS1wfYqwjoU8coz6U327AEsJ6iSVSccUdz7MJapA7C\";\n\n        // Setup main roles:\n        _company = company;\n        _superUser = superUser;\n\n        // Setup main global variables:\n        _nLevelsPerChallengeNextVerses = 4;\n        _maxTimeWithoutVerseProduction = 604800; // 1 week\n\n        // Setup TXBatchReference variables:\n        _referenceVerse = 1;\n        _verseInterval = 15 * 60;\n        _referenceTime =\n            block.timestamp +\n            _verseInterval -\n            (block.timestamp % _verseInterval);\n\n        // Initialize with null TXBatch and null Ownership Root\n        _txBatches.push(TXBatch(bytes32(0x0), 0, 0, 3, 4, 0));\n        _ownerships.push(Ownership(bytes32(0x0), 1));\n        _challenges.push(\n            Challenge(bytes32(0x0), bytes32(0x0), bytes32(0x0), 0)\n        );\n    }\n\n    /**\n     * @notice Sets further details of the code license\n     * @param newPath The new path where details can be obtained\n     */\n    function setLicense(string memory newPath) external onlySuperUser {\n        _license = newPath;\n        emit NewLicense(newPath);\n    }\n\n    /**\n     * @notice Sets max time period for new verse production.\n     * Beyond this deadline several functions can be activated.\n     * @param time The time period\n     */\n    function setTimeWithoutVerseProduction(uint256 time)\n        external\n        onlySuperUser\n    {\n        require(\n            time < 2592000,\n            \"setTimeWithoutVerseProduction: cannot set a time larger than 1 month\"\n        );\n        _maxTimeWithoutVerseProduction = time;\n        emit TimeWithoutVerseProduction(time);\n    }\n\n    /**\n     * @notice Sets default num of levels per challenge to be used for new verses\n     * @param value The value for num of levels\n     */\n    function setLevelsPerChallengeNextVerses(uint8 value)\n        external\n        onlySuperUser\n    {\n        _nLevelsPerChallengeNextVerses = value;\n        emit LevelsPerChallengeNextVerses(value);\n    }\n\n    /**\n     * @notice Sets the default challenge window, in secs, that affects new verses\n     * @param newTime The new default time\n     */\n    function setChallengeWindowNextVerses(uint256 newTime)\n        external\n        onlySuperUser\n    {\n        _challengeWindowNextVerses = newTime;\n        emit ChallengeWindow(newTime);\n    }\n\n    /**\n     * @notice Sets the reference values used to compute the expected time\n     * of production for new TX verses\n     * @param refVerse The reference verse\n     * @param refTime The timestamp of the reference verse\n     * @param vInterval The seconds between txVerses\n     */\n    function setTXBatchReference(\n        uint256 refVerse,\n        uint256 refTime,\n        uint256 vInterval\n    ) external onlySuperUser {\n        _referenceVerse = refVerse;\n        _verseInterval = vInterval;\n        _referenceTime = refTime;\n        emit TXBatchReference(refVerse, refTime, vInterval);\n    }\n\n    /**\n     * @notice Creates a new universe controlled by owner\n     * @param universeIdx The idx of the Universe, forced to be provided\n     * as input as a redundancy check and to avoid replay-attacks.\n     * @param owner The address of the owner of the universe\n     * @param authorizesRelay Whether owner of the universe authorizes the default relayer\n     * @param name The name of the universe\n     */\n    function createUniverse(\n        uint256 universeIdx,\n        address owner,\n        bool authorizesRelay,\n        string calldata name\n    ) external onlySuperUser {\n        require(\n            nUniverses() == universeIdx,\n            \"createUniverse: universeIdx does not equal nUniverses\"\n        );\n\n        // Prepare init arrays\n        bytes32[] memory initRootArray = new bytes32[](1);\n        initRootArray[0] = bytes32(0);\n        uint256[] memory initRootTimeStamp = new uint256[](1);\n        initRootTimeStamp[0] = block.timestamp;\n\n        // Create and emit event\n        _universes.push(\n            Universe(\n                owner,\n                name,\n                authorizesRelay,\n                initRootArray,\n                initRootTimeStamp,\n                false,\n                false\n            )\n        );\n        emit CreateUniverse(universeIdx, owner, name, authorizesRelay);\n    }\n\n    /// @inheritdoc IStorage\n    function changeUniverseClosure(\n        uint256 universeIdx,\n        bool closureRequested,\n        bool closureConfirmed\n    ) external onlyWriterContract {\n        _universes[universeIdx].closureRequested = closureRequested;\n        _universes[universeIdx].closureConfirmed = closureConfirmed;\n    }\n\n    /**\n     * @notice Changes name of a universe\n     * @param universeIdx The idx of the Universe\n     * @param name The new name of the Universe\n     */\n    function changeUniverseName(uint256 universeIdx, string calldata name)\n        external\n        onlySuperUser\n    {\n        require(universeIdx < nUniverses(), \"universeIdx does not exist\");\n        _universes[universeIdx].name = name;\n        emit UniverseName(universeIdx, name);\n    }\n\n    /**\n     * @notice Sets whether owner of a universe authorizes the default relayer\n     * @param universeIdx The idx of the Universe\n     * @param authorizesRelay Whether owner of the universe authorizes the default relayer\n     */\n    function setUniverseAuthorizesRelay(\n        uint256 universeIdx,\n        bool authorizesRelay\n    ) external onlySuperUser {\n        require(universeIdx < nUniverses(), \"universeIdx does not exist\");\n        require(\n            authorizesRelay != _universes[universeIdx].authorizesRelay,\n            \"universe auth relay value already as provided\"\n        );\n        _universes[universeIdx].authorizesRelay = authorizesRelay;\n        emit UniverseAuthorizesRelay(universeIdx, authorizesRelay);\n    }\n\n    /// @inheritdoc IStorage\n    function pushUniverseRoot(\n        uint256 universeIdx,\n        bytes32 newRoot,\n        uint256 submissionTime\n    ) external onlyWriterContract returns (uint256 verse) {\n        _universes[universeIdx].roots.push(newRoot);\n        _universes[universeIdx].rootsSubmissionTimes.push(submissionTime);\n        return _universes[universeIdx].roots.length - 1;\n    }\n\n    /// @inheritdoc IStorage\n    function setLastOwnershipRoot(bytes32 newRoot) external onlyWriterContract {\n        _ownerships[_ownerships.length - 1].root = newRoot;\n    }\n\n    /// @inheritdoc IStorage\n    function setLastOwnershipSubmissionTime(uint256 newTime)\n        external\n        onlyWriterContract\n    {\n        _ownerships[_ownerships.length - 1].submissionTime = newTime;\n    }\n\n    /// @inheritdoc IStorage\n    function deleteChallenges() external onlyWriterContract {\n        delete _challenges;\n    }\n\n    /// @inheritdoc IStorage\n    function pushTXRoot(\n        bytes32 newTXsRoot,\n        uint256 submissionTime,\n        uint256 nTXs,\n        uint8 levelVeriableByBC\n    ) external onlyWriterContract returns (uint256 txVerse) {\n        _txBatches.push(\n            TXBatch(\n                newTXsRoot,\n                submissionTime,\n                nTXs,\n                levelVeriableByBC,\n                _nLevelsPerChallengeNextVerses,\n                _challengeWindowNextVerses\n            )\n        );\n        return _txBatches.length - 1;\n    }\n\n    /// @inheritdoc IStorage\n    function pushOwnershipRoot(bytes32 newOwnershipRoot, uint256 submissionTime)\n        external\n        onlyWriterContract\n        returns (uint256 ownVerse)\n    {\n        _ownerships.push(Ownership(newOwnershipRoot, submissionTime));\n        return _ownerships.length - 1;\n    }\n\n    /// @inheritdoc IStorage\n    function pushChallenge(\n        bytes32 ownershipRoot,\n        bytes32 transitionsRoot,\n        bytes32 rootAtEdge,\n        uint256 pos\n    ) external onlyWriterContract {\n        _challenges.push(\n            Challenge(ownershipRoot, transitionsRoot, rootAtEdge, pos)\n        );\n    }\n\n    /// @inheritdoc IStorage\n    function popUniverseRoot(uint256 universeId)\n        external\n        onlyWriterContract\n        returns (uint256 verse)\n    {\n        _universes[universeId].roots.pop();\n        _universes[universeId].rootsSubmissionTimes.pop();\n        return _universes[universeId].roots.length - 1;\n    }\n\n    /// @inheritdoc IStorage\n    function popChallenge() external onlyWriterContract {\n        _challenges.pop();\n    }\n\n    /// @inheritdoc IStorage\n    function setExportInfo(\n        uint256 assetId,\n        address owner,\n        uint256 requestVerse,\n        uint256 completedVerse\n    ) external onlyAssetExporterContract {\n        _exportInfo[assetId] = ExportInfo(owner, requestVerse, completedVerse);\n    }\n\n    /**\n     * @notice Pushes an entry at the end of the claims array\n     */\n    function addClaim() external onlySuperUser {\n        _claims.push();\n    }\n\n    /// @inheritdoc IStorage\n    function setClaim(\n        uint256 claimIdx,\n        uint256 key,\n        uint256 verse,\n        string memory value\n    ) external onlyWriterContract {\n        Claim memory c = Claim(verse, value);\n        _claims[claimIdx][key] = c;\n    }\n}\n",
  "sourcePath": "/home/asini/workspace/blackhole-sol/truffle-core/contracts/storage/Storage.sol",
  "compiler": {
    "name": "solc",
    "version": "0.8.11+commit.d7f03943.Emscripten.clang"
  },
  "schemaVersion": "3.4.3",
  "updatedAt": "2022-03-10T15:07:31.853Z",
  "devdoc": {
    "kind": "dev",
    "methods": {
      "areAllChallengePosZero()": {
        "returns": {
          "_0": "Returns true if all positions are zero"
        }
      },
      "challengeWindowAtVerse(uint256)": {
        "params": {
          "verse": "The verse queried"
        },
        "returns": {
          "_0": "the amount of time allowed for challenging"
        }
      },
      "challengeWindowCurrent()": {
        "returns": {
          "_0": "the amount of time allowed for challenging"
        }
      },
      "challengeWindowNextVerses()": {
        "returns": {
          "_0": "the amount of time allowed for challenging"
        }
      },
      "challengesLevel()": {
        "returns": {
          "_0": "the level"
        }
      },
      "challengesOwnershipRoot(uint8)": {
        "params": {
          "level": "The queried challenge level"
        },
        "returns": {
          "_0": "the stored root"
        }
      },
      "challengesPos(uint8)": {
        "params": {
          "level": "The queried challenge level"
        },
        "returns": {
          "_0": "the position"
        }
      },
      "challengesRootAtEdge(uint8)": {
        "params": {
          "level": "The queried challenge level"
        },
        "returns": {
          "_0": "the stored root"
        }
      },
      "challengesTransitionsRoot(uint8)": {
        "params": {
          "level": "The queried challenge level"
        },
        "returns": {
          "_0": "the stored root"
        }
      },
      "changeUniverseClosure(uint256,bool,bool)": {
        "params": {
          "closureConfirmed": "True if the closure has been confirmed",
          "closureRequested": "True if the closure has been requested",
          "universeIdx": "The idx of the Universe"
        }
      },
      "changeUniverseName(uint256,string)": {
        "params": {
          "name": "The new name of the Universe",
          "universeIdx": "The idx of the Universe"
        }
      },
      "claim(uint256,uint256)": {
        "params": {
          "claimIdx": "The Idx that identifies claim",
          "key": "The key queried the claim"
        },
        "returns": {
          "value": "The value that corresponds to the key",
          "verse": "The verse at which the key was set"
        }
      },
      "computeBottomLevelLeafPos(uint256)": {
        "returns": {
          "bottomLevelLeafPos": "The position of the leaf"
        }
      },
      "createUniverse(uint256,address,bool,string)": {
        "params": {
          "authorizesRelay": "Whether owner of the universe authorizes the default relayer",
          "name": "The name of the universe",
          "owner": "The address of the owner of the universe",
          "universeIdx": "The idx of the Universe, forced to be provided as input as a redundancy check and to avoid replay-attacks."
        }
      },
      "exportCompletedVerse(uint256)": {
        "params": {
          "assetId": "The id of the asset"
        },
        "returns": {
          "completedVerse": "The TX verse at which the export process was completed (0 if not completed)"
        }
      },
      "exportOwner(uint256)": {
        "params": {
          "assetId": "The id of the asset"
        },
        "returns": {
          "owner": "The owner that requested the asset export"
        }
      },
      "exportRequestInfo(uint256)": {
        "params": {
          "assetId": "The id of the asset"
        },
        "returns": {
          "completedVerse": "The TX verse at which the export process was completed (0 if not completed)",
          "owner": "The owner that requested the asset export",
          "requestVerse": "The TX verse at which the export request was received"
        }
      },
      "exportRequestVerse(uint256)": {
        "params": {
          "assetId": "The id of the asset"
        },
        "returns": {
          "requestVerse": "The TX verse at which the export request was received"
        }
      },
      "levelVerifiableOnChainAtVerse(uint256)": {
        "params": {
          "verse": "The verse queried"
        },
        "returns": {
          "_0": "The level verifiable on chain"
        }
      },
      "levelVerifiableOnChainCurrent()": {
        "returns": {
          "_0": "The level verifiable on chain"
        }
      },
      "maxTimeWithoutVerseProduction()": {
        "returns": {
          "_0": "the maximum time"
        }
      },
      "nClaims()": {
        "returns": {
          "_0": "the number of Claims created"
        }
      },
      "nLeavesPerChallengeCurrent()": {
        "returns": {
          "_0": "Returns true if all positions are zero"
        }
      },
      "nLevelsPerChallengeAtVerse(uint256)": {
        "params": {
          "verse": "The verse queried"
        },
        "returns": {
          "_0": "The TX root at the provided verse"
        }
      },
      "nLevelsPerChallengeCurrent()": {
        "returns": {
          "_0": "the number of levels contained in each challenge"
        }
      },
      "nLevelsPerChallengeNextVerses()": {
        "returns": {
          "_0": "the number of levels contained in each challenge"
        }
      },
      "nTXsAtVerse(uint256)": {
        "params": {
          "verse": "The verse queried"
        },
        "returns": {
          "_0": "The number of TXs included in the batch"
        }
      },
      "nTXsCurrent()": {
        "returns": {
          "_0": "The number of TXs included in the batch"
        }
      },
      "nUniverses()": {
        "returns": {
          "_0": "The number of universes created"
        }
      },
      "ownershipCurrentVerse()": {
        "returns": {
          "_0": "the length of the ownership root array"
        }
      },
      "ownershipRootAtVerse(uint256)": {
        "params": {
          "verse": "The verse queried"
        },
        "returns": {
          "_0": "The ownership root at the provided verse"
        }
      },
      "ownershipRootCurrent()": {
        "returns": {
          "_0": "the last entry of the ownership root array"
        }
      },
      "ownershipSubmissionTimeAtVerse(uint256)": {
        "params": {
          "verse": "The verse queried"
        },
        "returns": {
          "_0": "the submission time of the Ownership root"
        }
      },
      "ownershipSubmissionTimeCurrent()": {
        "returns": {
          "_0": "the submission time of the Ownership root"
        }
      },
      "popUniverseRoot(uint256)": {
        "params": {
          "universeId": "The universeId"
        },
        "returns": {
          "verse": "The universe verse after applying the operation"
        }
      },
      "proposeCompany(address)": {
        "params": {
          "addr": "the address of new company owner"
        }
      },
      "pushChallenge(bytes32,bytes32,bytes32,uint256)": {
        "params": {
          "ownershipRoot": "The new proposed ownership root",
          "pos": "The position stored at the provided challenge level",
          "rootAtEdge": "The edge-root stored at the provided challenge level",
          "transitionsRoot": "The transitions root provided by the challenger"
        }
      },
      "pushOwnershipRoot(bytes32,uint256)": {
        "params": {
          "newOwnershipRoot": "The onwership root to be pushed",
          "ownVerse": "The new length of the ownership array after executing the push",
          "submissionTime": "The timestamp associated with the root"
        }
      },
      "pushTXRoot(bytes32,uint256,uint256,uint8)": {
        "params": {
          "levelVeriableByBC": "The challenge level that can be verified by the blockchain in case that the ownership root is challenged",
          "nTXs": "The number of TXs included in the TXBatch",
          "newTXsRoot": "The root of the TXBatch",
          "submissionTime": "The timestamp associated with the TXBatch",
          "txVerse": "The new txVerse after executing the push"
        }
      },
      "pushUniverseRoot(uint256,bytes32,uint256)": {
        "params": {
          "newRoot": "The new root to be pushed",
          "submissionTime": "The timestamp associated with the new root",
          "universeIdx": "The idx of the Universe"
        },
        "returns": {
          "verse": "The verse at which the universe is after the push"
        }
      },
      "referenceTime()": {
        "returns": {
          "_0": "The timestamp at which the reference verse took place"
        }
      },
      "referenceVerse()": {
        "returns": {
          "_0": "The reference verse"
        }
      },
      "setAssetExporter(address)": {
        "params": {
          "addr": "the address of the new AssetExporter contract"
        }
      },
      "setChallengeWindowNextVerses(uint256)": {
        "params": {
          "newTime": "The new default time"
        }
      },
      "setClaim(uint256,uint256,uint256,string)": {
        "params": {
          "claimIdx": "The Idx that identifies claim",
          "key": "The key in the claim",
          "value": "The value that corresponds to the key",
          "verse": "The verse at which the key is set"
        }
      },
      "setDirectory(address)": {
        "params": {
          "addr": "the address of the new Directory contract"
        }
      },
      "setExportInfo(uint256,address,uint256,uint256)": {
        "params": {
          "assetId": "The id of the asset",
          "completedVerse": "The TX verse at which the export is completed",
          "owner": "The address of the owner exporting the asset",
          "requestVerse": "The TX verse at which the export request is made"
        }
      },
      "setExternalNFTContract(address)": {
        "params": {
          "addr": "the address of the new NFT contract"
        }
      },
      "setLastOwnershipRoot(bytes32)": {
        "params": {
          "newRoot": "The new root"
        }
      },
      "setLastOwnershipSubmissionTime(uint256)": {
        "params": {
          "newTime": "The new time"
        }
      },
      "setLevelsPerChallengeNextVerses(uint8)": {
        "params": {
          "value": "The value for num of levels"
        }
      },
      "setLicense(string)": {
        "params": {
          "newPath": "The new path where details can be obtained"
        }
      },
      "setStakers(address)": {
        "params": {
          "addr": "the address of the new Staker contract"
        }
      },
      "setSuperUser(address)": {
        "params": {
          "addr": "the address of new superuser"
        }
      },
      "setTXBatchReference(uint256,uint256,uint256)": {
        "params": {
          "refTime": "The timestamp of the reference verse",
          "refVerse": "The reference verse",
          "vInterval": "The seconds between txVerses"
        }
      },
      "setTimeWithoutVerseProduction(uint256)": {
        "params": {
          "time": "The time period"
        }
      },
      "setTxRelayer(address)": {
        "params": {
          "addr": "the address of the new TX batch relayer"
        }
      },
      "setUniverseAuthorizesRelay(uint256,bool)": {
        "params": {
          "authorizesRelay": "Whether owner of the universe authorizes the default relayer",
          "universeIdx": "The idx of the Universe"
        }
      },
      "setUniverseOwner(uint256,address)": {
        "details": "The owner of a universe must sign any transaction that updates the state of the corresponding universe assets",
        "params": {
          "newOwner": "the new owner",
          "universeIdx": "the idx of the universe"
        }
      },
      "setUniversesRelayer(address)": {
        "params": {
          "addr": "the address of the new universes relayer"
        }
      },
      "setWriter(address)": {
        "params": {
          "addr": "the address of the new Writer contract"
        }
      },
      "txRootAtVerse(uint256)": {
        "params": {
          "verse": "The verse queried"
        },
        "returns": {
          "_0": "The TX root at the provided verse"
        }
      },
      "txRootCurrent()": {
        "returns": {
          "_0": "the last entry of the TXs root array"
        }
      },
      "txRootsCurrentVerse()": {
        "returns": {
          "_0": "the length of the TXs root array"
        }
      },
      "txSubmissionTimeAtVerse(uint256)": {
        "params": {
          "verse": "The verse queried"
        },
        "returns": {
          "_0": "the submission time of the TX batch"
        }
      },
      "txSubmissionTimeCurrent()": {
        "returns": {
          "_0": "the submission time of the TX batch"
        }
      },
      "universeAuthorizesRelay(uint256)": {
        "params": {
          "universeIdx": "The idx of the universe"
        },
        "returns": {
          "_0": "Returns true if owner of a universe authorizes the default relayer"
        }
      },
      "universeIsClosed(uint256)": {
        "params": {
          "universeIdx": "The idx of the universe"
        },
        "returns": {
          "_0": "Returns true if it is closed"
        }
      },
      "universeIsClosureRequested(uint256)": {
        "params": {
          "universeIdx": "The idx of the universe"
        },
        "returns": {
          "_0": "Returns true if it has its closure requested"
        }
      },
      "universeName(uint256)": {
        "params": {
          "universeIdx": "The idx of the universe"
        },
        "returns": {
          "_0": "The name of the universe"
        }
      },
      "universeOwner(uint256)": {
        "params": {
          "universeIdx": "The idx of the universe"
        },
        "returns": {
          "_0": "The address of the owner"
        }
      },
      "universeRootAtVerse(uint256,uint256)": {
        "params": {
          "universeIdx": "The idx of the universe",
          "verse": "The verse queried"
        },
        "returns": {
          "_0": "The root of the universe at the provided verse"
        }
      },
      "universeRootCurrent(uint256)": {
        "params": {
          "universeIdx": "The idx of the universe"
        },
        "returns": {
          "_0": "The root of the universe at the current verse"
        }
      },
      "universeRootSubmissionTimeAtVerse(uint256,uint256)": {
        "params": {
          "universeIdx": "The idx of the universe",
          "verse": "The verse queried"
        },
        "returns": {
          "_0": "The submission time"
        }
      },
      "universeRootSubmissionTimeCurrent(uint256)": {
        "params": {
          "universeIdx": "The idx of the universe"
        },
        "returns": {
          "_0": "The submission time"
        }
      },
      "universeVerse(uint256)": {
        "params": {
          "universeIdx": "The idx of the universe"
        },
        "returns": {
          "_0": "The verse"
        }
      },
      "upgrade(address,address,address)": {
        "details": "Upgrading amounts to changing the contracts with write permissions to storage, and reporting new contract addresses in a new Directory contract",
        "params": {
          "newAssetExporter": "the address of the new AssetExporter contract",
          "newDirectory": "the address of the new Directory contract",
          "newWriter": "the address of the new Writer contract"
        }
      },
      "verseInterval()": {
        "returns": {
          "_0": "The seconds between txVerses"
        }
      }
    },
    "version": 1
  },
  "userdoc": {
    "kind": "user",
    "methods": {
      "acceptCompany()": {
        "notice": "The proposed owner uses this function to become the new owner"
      },
      "addClaim()": {
        "notice": "Pushes an entry at the end of the claims array"
      },
      "areAllChallengePosZero()": {
        "notice": "Returns true if all positions stored in the current challenge process are zero"
      },
      "assetExporter()": {
        "notice": "Returns the address of the Assets Exporter contract"
      },
      "challengeWindowAtVerse(uint256)": {
        "notice": "Returns the amount of time allowed for challenging an ownership root at the provided verse"
      },
      "challengeWindowCurrent()": {
        "notice": "Returns the amount of time allowed for challenging an ownership root in the current verse"
      },
      "challengeWindowNextVerses()": {
        "notice": "Returns the amount of time allowed for challenging an ownership root that is currently set as default for next verses"
      },
      "challengesLevel()": {
        "notice": "Returns the level stored in the current challenge process"
      },
      "challengesOwnershipRoot(uint8)": {
        "notice": "Returns the ownership root stored at the provided challenge level"
      },
      "challengesPos(uint8)": {
        "notice": "Returns the position stored at the provided challenge level"
      },
      "challengesRootAtEdge(uint8)": {
        "notice": "Returns the edge-root stored at the provided challenge level"
      },
      "challengesTransitionsRoot(uint8)": {
        "notice": "Returns the transitions root stored at the provided challenge level"
      },
      "changeUniverseClosure(uint256,bool,bool)": {
        "notice": "Closes a universe so that it cannot be updated further"
      },
      "changeUniverseName(uint256,string)": {
        "notice": "Changes name of a universe"
      },
      "claim(uint256,uint256)": {
        "notice": "Returns the (verse, value) pair of the provided key in the provided claim"
      },
      "company()": {
        "notice": "Returns the address with company authorization"
      },
      "computeBottomLevelLeafPos(uint256)": {
        "notice": "Returns the position of the leaf at the bottom level of the current challenge process"
      },
      "createUniverse(uint256,address,bool,string)": {
        "notice": "Creates a new universe controlled by owner"
      },
      "deleteChallenges()": {
        "notice": "Deletes the Challenges array"
      },
      "directory()": {
        "notice": "Returns the address of the Directory contract"
      },
      "exportCompletedVerse(uint256)": {
        "notice": "Returns the TX verse at which the export process was completed (0 if not completed)"
      },
      "exportOwner(uint256)": {
        "notice": "Returns the owner that requested the asset export"
      },
      "exportRequestInfo(uint256)": {
        "notice": "Returns information about possible export requests about the provided asset"
      },
      "exportRequestVerse(uint256)": {
        "notice": "Returns the TX verse at which the export request was received"
      },
      "externalNFTContract()": {
        "notice": "Returns the address of the NFT contract where assets are minted when exported"
      },
      "levelVerifiableOnChainAtVerse(uint256)": {
        "notice": "Returns the challenge level verifiable on chain at the provided verse"
      },
      "levelVerifiableOnChainCurrent()": {
        "notice": "Returns the challenge level verifiable on chain in the current verse"
      },
      "license()": {
        "notice": "Returns address of the license details for the contract code"
      },
      "maxTimeWithoutVerseProduction()": {
        "notice": "Returns the maximum time since the production of the last verse beyond which assets can be exported without new verses being produced"
      },
      "nClaims()": {
        "notice": "Returns the number of Claims created"
      },
      "nLeavesPerChallengeCurrent()": {
        "notice": "Returns number of leaves contained in each challenge in the current verse"
      },
      "nLevelsPerChallengeAtVerse(uint256)": {
        "notice": "Returns the number of levels contained in each challenge at the provided verse"
      },
      "nLevelsPerChallengeCurrent()": {
        "notice": "Returns the number of levels contained in each challenge in the current verse"
      },
      "nLevelsPerChallengeNextVerses()": {
        "notice": "Returns the number of levels contained in each challenge set as default for next verses"
      },
      "nTXsAtVerse(uint256)": {
        "notice": "Returns the number of TXs included in the batch at the provided verse"
      },
      "nTXsCurrent()": {
        "notice": "Returns the number of TXs included in the batch in the current verse"
      },
      "nUniverses()": {
        "notice": "Returns the number of universes created"
      },
      "ownershipCurrentVerse()": {
        "notice": "Returns the length of the ownership root array"
      },
      "ownershipRootAtVerse(uint256)": {
        "notice": "Returns the ownership root at the provided verse"
      },
      "ownershipRootCurrent()": {
        "notice": "Returns the last entry of the ownership root array"
      },
      "ownershipSubmissionTimeAtVerse(uint256)": {
        "notice": "Returns the submission time of the Ownership root at the provided verse"
      },
      "ownershipSubmissionTimeCurrent()": {
        "notice": "Returns the submission time of the Ownership root in the current verse"
      },
      "popChallenge()": {
        "notice": "Pops the last entry from the challenges array"
      },
      "popUniverseRoot(uint256)": {
        "notice": "Pops the last entry from the universeRoot/universeSubmissionTime arrays"
      },
      "proposeCompany(address)": {
        "notice": "Proposes a new company owner, who needs to later accept it"
      },
      "proposedCompany()": {
        "notice": "Returns the address proposed for company authorization"
      },
      "pushChallenge(bytes32,bytes32,bytes32,uint256)": {
        "notice": "Pushes a new challenge to the challenges array"
      },
      "pushOwnershipRoot(bytes32,uint256)": {
        "notice": "Pushes a new Ownership stuct to the ownerships array"
      },
      "pushTXRoot(bytes32,uint256,uint256,uint8)": {
        "notice": "Pushes a new TXBatch to the txBatches array"
      },
      "pushUniverseRoot(uint256,bytes32,uint256)": {
        "notice": "Adds a new universe root struct to the universes array"
      },
      "referenceTime()": {
        "notice": "Returns the timestamp at which the reference verse took place used, in the computation of the time planned for the submission of a TX batch for a given verse"
      },
      "referenceVerse()": {
        "notice": "Returns the reference verse used in the computation of the time planned for the submission of a TX batch for a given verse"
      },
      "setAssetExporter(address)": {
        "notice": "Sets a new AssetExporter contract that manages export of assets"
      },
      "setChallengeWindowNextVerses(uint256)": {
        "notice": "Sets the default challenge window, in secs, that affects new verses"
      },
      "setClaim(uint256,uint256,uint256,string)": {
        "notice": "Sets a claim with to a provided key-value pair"
      },
      "setDirectory(address)": {
        "notice": "Sets a new Directory contract"
      },
      "setExportInfo(uint256,address,uint256,uint256)": {
        "notice": "Sets the exportInfo struct associated to an assetId"
      },
      "setExternalNFTContract(address)": {
        "notice": "Sets a new NFT contract to export assets to"
      },
      "setLastOwnershipRoot(bytes32)": {
        "notice": "Sets last ownership root to provided value"
      },
      "setLastOwnershipSubmissionTime(uint256)": {
        "notice": "Sets last ownership submission time to provided value"
      },
      "setLevelsPerChallengeNextVerses(uint8)": {
        "notice": "Sets default num of levels per challenge to be used for new verses"
      },
      "setLicense(string)": {
        "notice": "Sets further details of the code license"
      },
      "setStakers(address)": {
        "notice": "Sets a new Staker contract"
      },
      "setSuperUser(address)": {
        "notice": "Sets a new superuser"
      },
      "setTXBatchReference(uint256,uint256,uint256)": {
        "notice": "Sets the reference values used to compute the expected time of production for new TX verses"
      },
      "setTimeWithoutVerseProduction(uint256)": {
        "notice": "Sets max time period for new verse production. Beyond this deadline several functions can be activated."
      },
      "setTxRelayer(address)": {
        "notice": "Sets a new TX batch relayer"
      },
      "setUniverseAuthorizesRelay(uint256,bool)": {
        "notice": "Sets whether owner of a universe authorizes the default relayer"
      },
      "setUniverseOwner(uint256,address)": {
        "notice": "Sets a new owner for a provided universe"
      },
      "setUniversesRelayer(address)": {
        "notice": "Sets a new universes relayer"
      },
      "setWriter(address)": {
        "notice": "Sets a new Writer contract"
      },
      "stakers()": {
        "notice": "Returns the address of the Stakers contract"
      },
      "superUser()": {
        "notice": "Returns the address with super user authorization"
      },
      "txRelayer()": {
        "notice": "Returns the address with TX Batch relayer authorization"
      },
      "txRootAtVerse(uint256)": {
        "notice": "Returns the TX root at the provided verse"
      },
      "txRootCurrent()": {
        "notice": "Returns the last entry of the TXs root array"
      },
      "txRootsCurrentVerse()": {
        "notice": "Returns the length of the TXs root array"
      },
      "txSubmissionTimeAtVerse(uint256)": {
        "notice": "Returns the submission time of the TX batch at the provided verse"
      },
      "txSubmissionTimeCurrent()": {
        "notice": "Returns the submission time of the TX batch in the current verse"
      },
      "universeAuthorizesRelay(uint256)": {
        "notice": "Returns whether owner of a universe authorizes the default relayer"
      },
      "universeIsClosed(uint256)": {
        "notice": "Returns true if the universe if closed"
      },
      "universeIsClosureRequested(uint256)": {
        "notice": "Returns true if the universe has its closure requested"
      },
      "universeName(uint256)": {
        "notice": "Returns the name of a universe"
      },
      "universeOwner(uint256)": {
        "notice": "Returns the owner of a universe"
      },
      "universeRootAtVerse(uint256,uint256)": {
        "notice": "Returns the root of a universe at the provided verse"
      },
      "universeRootCurrent(uint256)": {
        "notice": "Returns current root of a universe"
      },
      "universeRootSubmissionTimeAtVerse(uint256,uint256)": {
        "notice": "Returns the submission time of a universe root at the provided verse"
      },
      "universeRootSubmissionTimeCurrent(uint256)": {
        "notice": "Returns the submission time of the current universe root"
      },
      "universeVerse(uint256)": {
        "notice": "Returns the current verse at which a universe is"
      },
      "universesRelayer()": {
        "notice": "Returns the address with universe-roots relayer authorization"
      },
      "upgrade(address,address,address)": {
        "notice": "Upgrades contracts"
      },
      "verseInterval()": {
        "notice": "Returns the seconds between txVerses between TX batch submissions, used in the computation of the time planned for each submission"
      },
      "writer()": {
        "notice": "Returns the address of the Writer contract"
      }
    },
    "version": 1
  }
}